{
  "contractName": "Dapp",
  "abi": [
    {
      "inputs": [],
      "stateMutability": "nonpayable",
      "type": "constructor"
    },
    {
      "stateMutability": "payable",
      "type": "receive"
    },
    {
      "inputs": [],
      "name": "depositAmount",
      "outputs": [],
      "stateMutability": "payable",
      "type": "function"
    },
    {
      "inputs": [
        {
          "internalType": "uint256",
          "name": "_amount",
          "type": "uint256"
        },
        {
          "internalType": "address",
          "name": "_address",
          "type": "address"
        }
      ],
      "name": "withdrawAmount",
      "outputs": [],
      "stateMutability": "nonpayable",
      "type": "function"
    }
  ],
  "bytecode": "0x60a060405234801561001057600080fd5b503373ffffffffffffffffffffffffffffffffffffffff1660808173ffffffffffffffffffffffffffffffffffffffff16815250506080516101c861005d600039600050506101c86000f3fe60806040526004361061002d5760003560e01c8063419759f514610039578063ff4233571461004357610034565b3661003457005b600080fd5b61004161006c565b005b34801561004f57600080fd5b5061006a60048036038101906100659190610152565b61006e565b005b565b8073ffffffffffffffffffffffffffffffffffffffff166108fc839081150290604051600060405180830381858888f193505050501580156100b4573d6000803e3d6000fd5b505050565b600080fd5b6000819050919050565b6100d1816100be565b81146100dc57600080fd5b50565b6000813590506100ee816100c8565b92915050565b600073ffffffffffffffffffffffffffffffffffffffff82169050919050565b600061011f826100f4565b9050919050565b61012f81610114565b811461013a57600080fd5b50565b60008135905061014c81610126565b92915050565b60008060408385031215610169576101686100b9565b5b6000610177858286016100df565b92505060206101888582860161013d565b915050925092905056fea264697066735822122033353672e957e7eca70ed769cdf62ef99f10aece37bd2612b4553607aa0662c564736f6c63430008120033",
  "immutableReferences": {},
  "source": "//SPDX-License-Identifier: MIT\npragma solidity ^0.8.10;\n\ncontract Dapp {\n    address immutable owner;\n\n    constructor() {\n        owner = msg.sender;\n    }\n\n    receive() external payable {}\n\n    function depositAmount() public payable {}\n\n    function withdrawAmount(uint _amount, address _address) public {\n        payable(_address).transfer(_amount);\n    }\n}\n",
  "sourcePath": "/Users/aamir/Documents/vs codes/blockchain development/dapps/first-dapp/contracts/Dapp.sol",
  "compiler": {
    "name": "solc",
    "version": "0.8.18+commit.87f61d96.Emscripten.clang"
  },
  "schemaVersion": "3.4.12",
  "updatedAt": "2023-08-10T15:27:05.709Z",
  "devdoc": {
    "kind": "dev",
    "methods": {},
    "version": 1
  },
  "userdoc": {
    "kind": "user",
    "methods": {},
    "version": 1
  }
}